:020000040800F2
:100000000028002009130008991200089F12000818
:10001000A5120008AB120008B11200080000000091
:10002000000000000000000000000000B7120008FF
:10003000C312000800000000CF120008DB12000805
:100040005113000851130008511300085113000800
:1000500051130008511300085113000851130008F0
:1000600051130008511300085113000851130008E0
:1000700051130008511300085113000851130008D0
:1000800051130008511300085113000851130008C0
:1000900051130008511300085113000851130008B0
:1000A00051130008511300085113000851130008A0
:1000B000E912000851130008000000005113000865
:1000C0005113000800000000000000005113000858
:1000D0000000000051130008511300080000000048
:1000E00051130008511300085113000800000000CC
:1000F0000000000000000000000000000000000000
:0C01000000000000000000005FF808F1A3
:10010C0010B5054C237833B9044B13B10448AFF345
:10011C0000800123237010BD5C0000200000000053
:10012C008029000808B5034B1BB103490348AFF302
:10013C00008008BD0000000060000020802900083D
:10014C0080B400AF064B1B68012B04D1044B00227A
:10015C001A60012300E000231846BD4680BC70479E
:10016C007800002080B400AF064B1B68012B04D133
:10017C00044B00221A60012300E000231846BD4600
:10018C0080BC70477C00002080B400AF034B012280
:10019C001A6000BFBD4680BC704700BF78000020CD
:1001AC0080B500AF1F4B1B681F4A13601F4B1B68A9
:1001BC001C4A13604FF400511D4801F0AFFB03467D
:1001CC001A461A4B1A60184B1A68164B1B689A423F
:1001DC0025D1144B1A68154B1B689A421FD1154B2D
:1001EC001A68124B1B689A420DD0104B1B68114AAF
:1001FC0013600E4B1B68002B11D1FFF7C5FF0E4B84
:10020C00C8221A600BE00C4B1B68013B0A4A1360B6
:10021C00094B1B68002B02D1084B01221A6000BF4E
:10022C0080BD00BF0400002000000020080000205A
:10023C00000C01400C0000201000002034000020B5
:10024C0080B500AF1F4B1B681F4A13601F4B1B6808
:10025C001C4A13604FF480411D4801F05FFB0346BC
:10026C001A461A4B1A60184B1A68164B1B689A429E
:10027C0026D1144B1A68154B1B689A4220D1154B8A
:10028C001A68124B1B689A420ED0104B1B68114A0D
:10029C0013600E4B1B68002B12D10F4B01221A60FE
:1002AC000E4BC8221A600BE00C4B1B68013B0B4A2F
:1002BC0013600A4B1B68002B02D1064B01221A60FB
:1002CC0000BF80BD18000020140000201C0000207E
:1002DC00000C0140200000207C00002024000020A5
:1002EC0080B500AF1F4B1B681F4A13601F4B1B6868
:1002FC001C4A13604FF400411D4801F00FFB0346EC
:10030C001A461A4B1A60184B1A68164B1B689A42FD
:10031C0026D1144B1A68154B1B689A4220D1154BE9
:10032C001A68124B1B689A420ED0104B1B68114A6C
:10033C0013600E4B1B68002B12D10F4B01221A605D
:10034C000E4BC8221A600BE00C4B1B68013B0B4A8E
:10035C0013600A4B1B68002B02D1064B01221A605A
:10036C0000BF80BD2C0000202800002030000020A1
:10037C00000C0140340000208000002038000020D8
:10038C0080B500AF4C4B1B68013B042B00F28880FE
:10039C0001A252F823F000BFB9030008CD030008F6
:1003AC00050400083D0400087504000800F030F94D
:1003BC00414B02221A6040F6B83000F04BFE78E058
:1003CC0000F04AF900F0A0F93C4B1B68012B06D158
:1003DC00394B03221A604FF4FA6000F03BFEFFF732
:1003EC00AFFE0346012B5DD1334B0C221A6040F655
:1003FC00B83000F02FFE55E000F02EF900F09AF91D
:10040C002E4B1B68012B06D12B4B04221A604FF488
:10041C00FA6000F01FFEFFF793FE0346012B43D159
:10042C00254B0C221A6042F2107000F013FE3BE0D8
:10043C0000F028F900F052F9204B1B68012B06D173
:10044C001D4B05221A604FF4FA6000F003FEFFF713
:10045C0077FE0346012B29D1174B0C221A6042F26E
:10046C00107000F0F7FD21E000F022F900F036F9F1
:10047C00124B1B68012B06D10F4B02221A6040F65F
:10048C00B83000F0E7FDFFF75BFE0346012B0FD100
:10049C00094B0C221A6042F2107000F0DBFD07E0F1
:1004AC0000BF06E000BF04E000BF02E000BF00E0B8
:1004BC0000BF00BF80BD00BF3C00002090000020AA
:1004CC0080B500AF4F4B1B680E2B35D00E2B00F3B5
:1004DC008F800C2B02D00D2B5CD089E04A4B1B6813
:1004EC00012B05D100F03CF94FF4FA7000F006FE38
:1004FC00464B1B68012B06D1424B02221A6041F27B
:10050C00883000F0A7FDFFF71BFE0346012B06D138
:10051C003C4B0D221A6042F2107000F09BFDFFF76D
:10052C0021FE0346012B65D1364B15221A6042F28F
:10053C00107000F08FFD5DE0334B1B68012B05D173
:10054C0000F030F94FF4FA7000F0D8FD2F4B1B6817
:10055C00012B06D12B4B02221A6041F2883000F09D
:10056C0079FDFFF7EDFD0346012B06D1254B022249
:10057C001A6042F2107000F06DFDFFF7F3FD0346B8
:10058C00012B39D11F4B17221A6042F2107000F068
:10059C0061FD31E01C4B1B68012B05D100F024F9E7
:1005AC004FF4FA7000F0AAFD184B1B68012B06D112
:1005BC00144B02221A6041F2883000F04BFDFFF719
:1005CC00BFFD0346012B06D10E4B0E221A6042F2E0
:1005DC00107000F03FFDFFF7C5FD0346012B0DD158
:1005EC00084B16221A6042F2107000F033FD05E041
:1005FC0000BF04E000BF02E000BF00E000BF00BF8E
:10060C0080BD00BF3C000020A8000020900000200E
:10061C0080B500AF002201210E4801F096F90022AE
:10062C0002210C4801F091F900220421094801F043
:10063C008CF900220821074801F087F900221021CB
:10064C00044801F082F900222021024801F07DF9D2
:10065C0000BF80BD000C014080B500AF012201211C
:10066C00074801F072F900220221054801F06DF9EA
:10067C0000220421024801F068F900BF80BD00BFD0
:10068C00000C014080B500AF00220121074801F0A9
:10069C005CF901220221054801F057F900220421DE
:1006AC00024801F052F900BF80BD00BF000C0140B0
:1006BC0080B500AF00220121074801F046F9002265
:1006CC000221054801F041F901220421024801F000
:1006DC003CF900BF80BD00BF000C014080B500AFED
:1006EC0001220821074801F030F9002210210548A9
:1006FC0001F02BF900222021024801F026F900BF5D
:10070C0080BD00BF000C014080B500AF0022082165
:10071C00074801F01AF901221021054801F015F9DA
:10072C0000222021024801F010F900BF80BD00BF5B
:10073C00000C014080B500AF00220821074801F0F1
:10074C0004F900221021054801F0FFF801222021B4
:10075C00024801F0FAF800BF80BD00BF000C014058
:10076C0080B500AF002202210D4801F0EEF8002206
:10077C0004210B4801F0E9F800221021084801F08F
:10078C00E4F800222021064801F0DFF8012104489A
:10079C0001F0F3F80821024801F0EFF800BF80BD2A
:1007AC00000C014080B500AF002201210D4801F082
:1007BC00CCF802210B4801F0E0F800220421094892
:1007CC0001F0C3F800220821064801F0BEF8102100
:1007DC00044801F0D2F800222021024801F0B5F8BB
:1007EC0000BF80BD000C014080B500AF002201218C
:1007FC000D4801F0AAF8002202210B4801F0A5F8DF
:10080C000421094801F0B9F800220821064801F03A
:10081C009CF800221021044801F097F8202102488E
:10082C0001F0ABF800BF80BD000C014080B582B078
:10083C0000AF78607B68092B00F2C88101A252F8E6
:10084C0023F000BF79080008CF080008250900082C
:10085C007B090008D1090008270A00087D0A000856
:10086C00D30A0008290B00087F0B000800224FF464
:10087C000071D54801F069F800224FF48061D2482C
:10088C0001F063F800224FF40061CF4801F05DF8ED
:10089C0000224FF48051CC4801F057F800224FF45D
:1008AC000051C94801F051F800224FF48041C6486C
:1008BC0001F04BF801224FF40041C34801F045F818
:1008CC0085E101224FF40071BF4801F03EF800228F
:1008DC004FF48061BC4801F038F800224FF40061FD
:1008EC00B94801F032F801224FF48051B64801F0BA
:1008FC002CF801224FF40051B34801F026F80122E4
:10090C004FF48041B04801F020F801224FF400412F
:10091C00AD4801F01AF85AE100224FF40071AA48D0
:10092C0001F013F800224FF48061A74801F00DF894
:10093C0001224FF40061A44801F007F800224FF4A3
:10094C008051A14801F001F800224FF400519E485B
:10095C0000F0FBFF01224FF480419B4800F0F5FFB3
:10096C0000224FF40041984800F0EFFF2FE10022E5
:10097C004FF40071944800F0E8FF00224FF48061BE
:10098C00914800F0E2FF00224FF400618E4800F025
:10099C00DCFF00224FF480518B4800F0D6FF01227F
:1009AC004FF40051884800F0D0FF01224FF48041F1
:1009BC00854800F0CAFF00224FF40041824800F045
:1009CC00C4FF04E101224FF400717F4800F0BDFF29
:1009DC0000224FF480617C4800F0B7FF00224FF4F6
:1009EC000061794800F0B1FF01224FF48051764844
:1009FC0000F0ABFF01224FF40051734800F0A5FF4B
:100A0C0000224FF48041704800F09FFF00224FF409
:100A1C0000416D4800F099FFD9E000224FF40071BD
:100A2C00694800F092FF01224FF48061664800F0A3
:100A3C008CFF00224FF40061634800F086FF002217
:100A4C004FF48051604800F080FF01224FF40051B8
:100A5C005D4800F07AFF00224FF480415A4800F0C4
:100A6C0074FF00224FF40041574800F06EFFAEE0D7
:100A7C0000224FF40071544800F067FF01224FF43C
:100A8C008061514800F061FF00224FF400614E4834
:100A9C0000F05BFF00224FF480514B4800F055FFF3
:100AAC0000224FF40051484800F04FFF00224FF451
:100ABC008041454800F049FF00224FF40041424874
:100ACC0000F043FF83E000224FF400713E4800F039
:100ADC003CFF00224FF480613B4800F036FF0022BF
:100AEC004FF40061384800F030FF01224FF4805180
:100AFC00354800F02AFF01224FF40051324800F033
:100B0C0024FF01224FF480412F4800F01EFF0122E8
:100B1C004FF400412C4800F018FF58E000224FF42D
:100B2C000071294800F011FF00224FF48061264823
:100B3C0000F00BFF00224FF40061234800F005FF8A
:100B4C0000224FF48051204800F0FFFE00224FF4A9
:100B5C0000511D4800F0F9FE00224FF480411A4864
:100B6C0000F0F3FE00224FF40041174800F0EDFEB8
:100B7C002DE000224FF40071134800F0E6FE002235
:100B8C004FF48061104800F0E0FE00224FF4006149
:100B9C000D4800F0DAFE00224FF480510A4800F0B4
:100BAC00D4FE01224FF40051074800F0CEFE002283
:100BBC004FF48041044800F0C8FE00224FF400417D
:100BCC00014800F0C2FE02E00008014000BF00BF77
:100BDC000837BD4680BD00BF80B582B000AF7860DD
:100BEC007B685A4203F0030302F0030258BF5342DE
:100BFC007B607B68032B7BD801A252F823F000BFEB
:100C0C001D0C0008550C00088D0C0008C50C0008C4
:100C1C0000220221394800F098FE012204213748B5
:100C2C0000F093FE01220821344800F08EFE0122D0
:100C3C001021324800F089FE314A7B6852F823308B
:100C4C001846FFF7F3FD54E0012202212B4800F077
:100C5C007CFE00220421294800F077FE01220821A5
:100C6C00264800F072FE01221021244800F06DFE8F
:100C7C00234A7B6852F823301846FFF7D7FD38E03B
:100C8C00012202211D4800F060FE012204211B48B4
:100C9C0000F05BFE00220821184800F056FE0122ED
:100CAC001021164800F051FE154A7B6852F823308B
:100CBC001846FFF7BBFD1CE0012202210F4800F093
:100CCC0044FE012204210D4800F03FFE01220821C0
:100CDC000A4800F03AFE00221021084800F035FEC8
:100CEC00074A7B6852F823301846FFF79FFD00E057
:100CFC0000BF00BF0837BD4680BD00BF00080140E3
:100D0C004000002080B400AF154B1B68013B144A17
:100D1C001360134B1B68002B07DC114B09221A6064
:100D2C00104B1B68013B0F4A13600E4B1B68002BCA
:100D3C0002DC0C4B09221A600A4B1B680A4A13602E
:100D4C00074B1B68084A5360084B1B68064A9360A4
:100D5C00074B1B68044AD36000BFBD4680BC70477C
:100D6C00B8000020AC00002040000020B0000020A3
:100D7C00B400002080B500AF00F0E6FA00F04EF8A9
:100D8C0000F0D4F800F086F81E4801F03BFA1E4B38
:100D9C0001221A60642000F05DF9642000F076F9FD
:100DAC00642000F08FF9642000F0A8F9174B0022A2
:100DBC001A60174B00221A60FFF7E2FAFFF780FB6C
:100DCC00144B1B68012B11D1104B1B68032B02DD3C
:100DDC000E4B00221A600D4B1B685A1C0B490A6003
:100DEC001846FFF7F9FEFA2000F050F90A4B1B6881
:100DFC00012BE1D1FFF786FF4FF47A7000F062F916
:100E0C00DAE700BFBC0000203C0000208800002076
:100E1C008400002098000020A000002080B590B035
:100E2C0000AF07F1180328220021184601F09AFDA3
:100E3C003B1D00221A605A609A60DA601A61022324
:100E4C00BB610123BB621023FB6200237B6307F1B0
:100E5C001803184600F0AAFD0346002B01D000F041
:100E6C00F3F80F237B600023BB600023FB6000239F
:100E7C003B6100237B613B1D0021184601F016F8F5
:100E8C000346002B01D000F0DFF800BF4037BD4611
:100E9C0080BD000080B586B000AF07F108030022CA
:100EAC001A605A609A60DA603B4600221A605A60F7
:100EBC001D4B4FF080421A601B4B41F63F725A603B
:100ECC00194B00229A60184B0922DA60164B00224B
:100EDC001A61154B00229A61134801F043F903463D
:100EEC00002B01D000F0B0F84FF48053BB6007F139
:100EFC00080319460C4801F0C1FA0346002B01D037
:100F0C0000F0A2F800233B6000237B603B461946AF
:100F1C00054801F099FC0346002B01D000F094F831
:100F2C0000BF1837BD4680BDBC00002080B588B01E
:100F3C0000AF07F1100300221A605A609A60DA6061
:100F4C00354B9B69344A43F010039361324B9B69D8
:100F5C0003F01003FB60FB682F4B9B692E4A43F098
:100F6C00040393612C4B9B6903F00403BB60BB68C7
:100F7C00294B9B69284A43F008039361264B9B69D4
:100F8C0003F008037B607B6800224FF6FE61234868
:100F9C0000F0DBFC002240F23F11214800F0D5FCB0
:100FAC004FF400533B6100237B610123BB6107F1CC
:100FBC00100319461B4800F037FB4FF6FE633B61EC
:100FCC0001237B610023BB610223FB6107F110034A
:100FDC001946124800F028FB40F23F133B610123F5
:100FEC007B610023BB610223FB6107F110031946EF
:100FFC000B4800F019FB4FF460433B6100237B610D
:10100C000123BB6107F110031946054800F00CFBE6
:10101C0000BF2037BD4680BD0010024000080140D3
:10102C00000C01400010014080B582B000AF786028
:10103C0000F080F8FFF7B4F8FFF702F9FFF750F96A
:10104C0000BF0837BD4680BD80B400AF72B600BF8C
:10105C00FEE7000080B483B000AF78607B68084A7C
:10106C0082FB03129210DB17D31A064A1360064B4D
:10107C0000221A6000BF0C37BD4680BC704700BF11
:10108C00676666668C0000209000002080B483B0F8
:10109C0000AF78607B68084A82FB03129210DB1762
:1010AC00D31A064A1360064B00221A6000BF0C3795
:1010BC00BD4680BC704700BF676666669400002022
:1010CC009800002080B483B000AF78607B68084A39
:1010DC0082FB03129210DB17D31A064A1360064BDD
:1010EC0000221A6000BF0C37BD4680BC704700BFA1
:1010FC00676666669C000020A000002080B483B068
:10110C0000AF78607B68084A82FB03129210DB17F1
:10111C00D31A064A1360064B00221A6000BF0C3724
:10112C00BD4680BC704700BF67666666A4000020A1
:10113C00A800002080B400AF214B1B68002B0BDDF6
:10114C001F4B1B68013B1E4A13601D4B1B68002B79
:10115C0002DC1C4B01221A601B4B1B68002B0BDDA5
:10116C00194B1B68013B184A1360174B1B68002B6B
:10117C0002DC164B01221A60154B1B68002B0BDD91
:10118C00134B1B68013B124A1360114B1B68002B5D
:10119C0002DC104B01221A600F4B1B68002B0BDD7D
:1011AC000D4B1B68013B0C4A13600B4B1B68002B4F
:1011BC0002DC0A4B01221A6000BFBD4680BC70479E
:1011CC008C0000209000002094000020980000204B
:1011DC009C000020A0000020A4000020A8000020FB
:1011EC0080B485B000AF154B9B69144A43F00103E2
:1011FC009361124B9B6903F00103BB60BB680F4BFF
:10120C00DB690E4A43F08053D3610C4BDB6903F06E
:10121C0080537B607B680A4B5B68FB60FB6823F048
:10122C00E063FB60FB6843F08063FB60044AFB688F
:10123C00536000BF1437BD4680BC7047001002409D
:10124C000000014080B584B000AF78607B681B68FB
:10125C00B3F1804F13D10C4BDB690B4A43F0010304
:10126C00D361094BDB6903F00103FB60FB680022CF
:10127C0000211C2000F0A1F91C2000F0BAF900BFDD
:10128C001037BD4680BD00BF0010024080B400AFD7
:10129C00FEE780B400AFFEE780B400AFFEE780B499
:1012AC0000AFFEE780B400AFFEE780B400AF00BF34
:1012BC00BD4680BC704780B400AF00BFBD4680BC4B
:1012CC00704780B400AF00BFBD4680BC704780B58E
:1012DC0000AF00F07FF800BF80BD000080B500AF0C
:1012EC00024800F0DBFF00BF80BD00BFBC00002047
:1012FC0080B400AF00BFBD4680BC7047FFF7F8FF5D
:10130C000B480C490C4A002302E0D458C450043357
:10131C00C4188C42F9D3094A094C002301E013602C
:10132C000432A242FBD301F0F9FAFFF723FD704718
:10133C00000000205C000020C42900085C00002094
:10134C0008010020FEE7000080B500AF084B1B68C9
:10135C00074A43F010031360032000F023F90F2019
:10136C0000F008F8FFF73CFF0023184680BD00BFD3
:10137C000020024080B582B000AF7860124B1A6832
:10138C00124B1B7819464FF47A73B3FBF1F3B2FB93
:10139C00F3F3184600F03BF90346002B01D0012370
:1013AC000EE07B680F2B0AD8002279684FF0FF30D3
:1013BC0000F003F9064A7B681360002300E0012368
:1013CC0018460837BD4680BD50000020580000204C
:1013DC005400002080B400AF054B1B781A46054B17
:1013EC001B681344034A136000BFBD4680BC7047A2
:1013FC00580000200401002080B400AF024B1B6891
:10140C001846BD4680BC70470401002080B485B0EE
:10141C0000AF78607B6803F00703FB600C4BDB6864
:10142C00BB60BA684FF6FF031340BB60FB681A023F
:10143C00BB68134343F0BF6343F40033BB60044AFF
:10144C00BB68D36000BF1437BD4680BC704700BF7B
:10145C0000ED00E080B400AF044BDB681B0A03F026
:10146C0007031846BD4680BC704700BF00ED00E086
:10147C0080B483B000AF0346FB7197F90730002BA3
:10148C000BDBFB7903F01F02064997F907305B0968
:10149C00012000FA02F241F8232000BF0C37BD46B0
:1014AC0080BC704700E100E080B483B000AF03461D
:1014BC003960FB7197F90730002B0ADB3B68DAB215
:1014CC000C4997F907301201D2B20B4483F8002370
:1014DC000AE03B68DAB20849FB7903F00F03043BDE
:1014EC001201D2B20B441A7600BF0C37BD4680BC39
:1014FC00704700BF00E100E000ED00E080B489B06F
:10150C0000AFF860B9607A60FB6803F00703FB6119
:10151C00FB69C3F10703042B28BF0423BB61FB69E0
:10152C000433062B02D9FB69033B00E000237B61EB
:10153C004FF0FF32BB6902FA03F3DA43BB681A407F
:10154C007B699A404FF0FF317B6901FA03F3D94371
:10155C007B680B40134318462437BD4680BC70474C
:10156C0080B582B000AF78607B68013BB3F1807FBF
:10157C0001D301230FE00A4A7B68013B53600F2122
:10158C004FF0FF30FFF790FF054B00229A60044BA1
:10159C0007221A60002318460837BD4680BD00BFDD
:1015AC0010E000E080B582B000AF78607868FFF79B
:1015BC002DFF00BF0837BD4680BD80B586B000AF9B
:1015CC000346B9607A60FB7300237B61FFF742FF2F
:1015DC0078617A68B9687869FFF790FF024697F9E5
:1015EC000F3011461846FFF75FFF00BF1837BD4696
:1015FC0080BD80B582B000AF0346FB7197F9073010
:10160C001846FFF735FF00BF0837BD4680BD80B5D3
:10161C0082B000AF78607868FFF7A2FF03461846E7
:10162C000837BD4680BD000080B48BB000AF786039
:10163C00396000237B6200233B6248E101227B6A14
:10164C0002FA03F3FB613B681B68FA691340BB6148
:10165C00BA69FB699A4240F037813B685B68A34AE0
:10166C0093425ED0A14A934275D8A14A934258D076
:10167C009F4A93426FD89F4A934252D09D4A9342BD
:10168C0069D89D4A93424CD09B4A934263D89B4A5B
:10169C00934246D0994A93425DD8122B2AD8122BEA
:1016AC0059D801A252F823F02F1700080917000887
:1016BC001B1700085D170008631700086317000864
:1016CC006317000863170008631700086317000806
:1016DC0063170008631700086317000863170008F6
:1016EC006317000863170008631700081117000838
:1016FC0025170008824A934213D02CE03B68DB6824
:10170C003B6229E03B68DB6804333B6224E03B68C6
:10171C00DB6808333B621FE03B68DB680C333B62E1
:10172C001AE03B689B68002B02D104233B6213E058
:10173C003B689B68012B05D108233B627B68FA69E7
:10174C001A6109E008233B627B68FA695A6103E07D
:10175C0000233B6200E000BFBB69FF2B01D87B6814
:10176C0001E07B6804337B61BB69FF2B02D87B6A89
:10177C009B0002E07B6A083B9B003B617B691A681B
:10178C000F213B6901FA03F3DB431A40396A3B69C9
:10179C0001FA03F31A437B691A603B685B6803F038
:1017AC008053002B00F09080564B9B69554A43F0B8
:1017BC0001039361534B9B6903F00103BB60BB684E
:1017CC00514A7B6A9B08023352F82330FB607B6AD8
:1017DC0003F003039B000F2202FA03F3DB43FA68C6
:1017EC001340FB607B68494A93420DD07B68484AA2
:1017FC00934207D07B68474A934201D1022304E00D
:10180C00032302E0012300E000237A6A02F00302C2
:10181C0092009340FA681343FB603B497B6A9B0838
:10182C000233FA6841F823203B685B6803F48013A9
:10183C00002B06D0384B9A683749BB6913438B6031
:10184C0006E0354B9A68BB69DB43334913408B6028
:10185C003B685B6803F40013002B06D02E4BDA6850
:10186C002D49BB691343CB6006E02B4BDA68BB698F
:10187C00DB4329491340CB603B685B6803F40033BE
:10188C00002B06D0244B5A682349BB6913434B6089
:10189C0006E0214B5A68BB69DB431F4913404B6080
:1018AC003B685B6803F48033002B06D01A4B1A6834
:1018BC001949BB6913430B6006E0174B1A68BB69E7
:1018CC00DB43154913400B607B6A01337B623B6839
:1018DC001A687B6A22FA03F3002B7FF4AFAE00BFC9
:1018EC0000BF2C37BD4680BC704700BF00003210D3
:1018FC000000311000002210000021100000121016
:10190C0000001110001002400000014000080140CE
:10191C00000C0140001001400004014080B485B06F
:10192C0000AF78600B467B807B689A687B8813409D
:10193C00002B02D00123FB7301E00023FB73FB7B24
:10194C0018461437BD4680BC704780B483B000AFD6
:10195C0078600B467B8013467B707B78002B03D022
:10196C007A887B681A6103E07B881A047B681A61A9
:10197C0000BF0C37BD4680BC704780B485B000AF4B
:10198C0078600B467B807B68DB68FB607A88FB6841
:10199C0013401A04FB68D9437B880B401A437B68BD
:1019AC001A6100BF1437BD4680BC704780B586B045
:1019BC0000AF78607B68002B01D101236CE27B685F
:1019CC001B6803F00103002B00F08780924B5B68CF
:1019DC0003F00C03042B0CD08F4B5B6803F00C034F
:1019EC00082B12D18C4B5B6803F48033B3F5803F2A
:1019FC000BD1894B1B6803F40033002B6CD07B6834
:101A0C005B68002B68D1012346E27B685B68B3F509
:101A1C00803F06D1804B1B687F4A43F480331360B0
:101A2C002EE07B685B68002B0CD17B4B1B687A4AE1
:101A3C0023F480331360784B1B68774A23F480239C
:101A4C0013601DE07B685B68B3F5A02F0CD1724B63
:101A5C001B68714A43F4802313606F4B1B686E4AFA
:101A6C0043F4803313600BE06B4B1B686A4A23F41E
:101A7C0080331360684B1B68674A23F48023136020
:101A8C007B685B68002B13D0FFF7B6FC386108E06D
:101A9C00FFF7B2FC02463B69D31A642B01D903232E
:101AAC00FAE15D4B1B6803F40033002BF0D014E01B
:101ABC00FFF7A2FC386108E0FFF79EFC02463B6989
:101ACC00D31A642B01D90323E6E1534B1B6803F4AF
:101ADC000033002BF0D100E000BF7B681B6803F0E3
:101AEC000203002B63D04C4B5B6803F00C03002B00
:101AFC000BD0494B5B6803F00C03082B1CD1464BF5
:101B0C005B6803F48033002B16D1434B1B6803F046
:101B1C000203002B05D07B681B69012B01D001232C
:101B2C00BAE13D4B1B6823F0F8027B685B69DB0074
:101B3C00394913430B603AE07B681B69002B20D0BA
:101B4C00364B01221A60FFF757FC386108E0FFF7AB
:101B5C0053FC02463B69D31A022B01D903239BE1A8
:101B6C002D4B1B6803F00203002BF0D02A4B1B6893
:101B7C0023F0F8027B685B69DB00274913430B6099
:101B8C0015E0264B00221A60FFF736FC386108E09E
:101B9C00FFF732FC02463B69D31A022B01D903230F
:101BAC007AE11D4B1B6803F00203002BF0D17B681C
:101BBC001B6803F00803002B3AD07B689B69002B51
:101BCC0019D0174B01221A60FFF716FC386108E098
:101BDC00FFF712FC02463B69D31A022B01D90323EF
:101BEC005AE10D4B5B6A03F00203002BF0D001208D
:101BFC0000F09AFA1CE00A4B00221A60FFF7FCFB7B
:101C0C0038610FE0FFF7F8FB02463B69D31A022B51
:101C1C0008D9032340E100BF0010024000004242FB
:101C2C00800442429E4B5B6A03F00203002BE9D115
:101C3C007B681B6803F00403002B00F0A6800023D4
:101C4C00FB75974BDB6903F08053002B0DD1944B44
:101C5C00DB69934A43F08053D361914BDB6903F00A
:101C6C008053BB60BB680123FB758E4B1B6803F470
:101C7C008073002B18D18B4B1B688A4A43F48073FA
:101C8C001360FFF7B9FB386108E0FFF7B5FB0246BC
:101C9C003B69D31A642B01D90323FDE0814B1B68EC
:101CAC0003F48073002BF0D07B68DB68012B06D12A
:101CBC007B4B1B6A7A4A43F0010313622DE07B686D
:101CCC00DB68002B0CD1764B1B6A754A23F00103A1
:101CDC001362734B1B6A724A23F0040313621CE0F9
:101CEC007B68DB68052B0CD16D4B1B6A6C4A43F08F
:101CFC00040313626A4B1B6A694A43F001031362C3
:101D0C000BE0674B1B6A664A23F001031362644BBA
:101D1C001B6A634A23F0040313627B68DB68002BA5
:101D2C0015D0FFF769FB38610AE0FFF765FB024647
:101D3C003B69D31A41F28832934201D90323ABE0B9
:101D4C00574B1B6A03F00203002BEED014E0FFF795
:101D5C0053FB38610AE0FFF74FFB02463B69D31A8D
:101D6C0041F28832934201D9032395E04C4B1B6A14
:101D7C0003F00203002BEED1FB7D012B05D1484B68
:101D8C00DB69474A23F08053D3617B68DB69002B06
:101D9C0000F08180424B5B6803F00C03082B61D090
:101DAC007B68DB69022B46D13F4B00221A60FFF7A0
:101DBC0023FB386108E0FFF71FFB02463B69D31A8F
:101DCC00022B01D9032367E0354B1B6803F000732A
:101DDC00002BF0D17B681B6AB3F5803F08D1304BE8
:101DEC005B6823F400327B689B682D4913434B607E
:101DFC002B4B5B6823F474127B68196A7B685B6AF3
:101E0C000B43274913434B60274B01221A60FFF702
:101E1C00F3FA386108E0FFF7EFFA02463B69D31A90
:101E2C00022B01D9032337E01D4B1B6803F0007311
:101E3C00002BF0D02FE01C4B00221A60FFF7DCFACD
:101E4C00386108E0FFF7D8FA02463B69D31A022B37
:101E5C0001D9032320E0124B1B6803F00073002B05
:101E6C00F0D118E07B68DB69012B01D1012313E071
:101E7C000B4B5B68FB60FB6803F480327B681B6A6E
:101E8C009A4206D1FB6803F470127B685B6A9A4233
:101E9C0001D0012300E0002318461837BD4680BD51
:101EAC0000100240007000406000424280B584B0D7
:101EBC0000AF786039607B68002B01D10123D0E042
:101ECC006A4B1B6803F007033A689A4210D9674BB8
:101EDC001B6823F0070265493B6813430B60634B97
:101EEC001B6803F007033A689A4201D00123B8E05B
:101EFC007B681B6803F00203002B20D07B681B68F7
:101F0C0003F00403002B05D0594B5B68584A43F48B
:101F1C00E06353607B681B6803F00803002B05D05B
:101F2C00534B5B68524A43F460535360504B5B68AD
:101F3C0023F0F0027B689B684D4913434B607B6830
:101F4C001B6803F00103002B40D07B685B68012BFE
:101F5C0007D1474B1B6803F40033002B15D1012329
:101F6C007FE07B685B68022B07D1414B1B6803F059
:101F7C000073002B09D1012373E03D4B1B6803F068
:101F8C000203002B01D101236BE0394B5B6823F07A
:101F9C0003027B685B68364913434B60FFF72CFAEE
:101FAC00F8600AE0FFF728FA0246FB68D31A41F200
:101FBC008832934201D9032353E02D4B5B6803F025
:101FCC000C027B685B689B009A42EBD1274B1B6829
:101FDC0003F007033A689A4210D2244B1B6823F093
:101FEC00070222493B6813430B60204B1B6803F02C
:101FFC0007033A689A4201D0012332E07B681B68E0
:10200C0003F00403002B08D0194B5B6823F4E06247
:10201C007B68DB68164913434B607B681B6803F0D5
:10202C000803002B09D0124B5B6823F460527B68C9
:10203C001B69DB000E4913434B6000F021F802468C
:10204C000B4B5B681B0903F00F030A49CB5C22FAAC
:10205C0003F3094A1360094B1B681846FFF78AF90A
:10206C00002318461037BD4680BD00BF002002403B
:10207C000010024098290008500000205400002055
:10208C0080B487B000AF0023FB600023BB6000234B
:10209C007B6100237B6000233B611E4B5B68FB6014
:1020AC00FB6803F00C03042B02D0082B03D027E0B1
:1020BC00194B3B6127E0FB689B0C03F00F03174A9D
:1020CC00D35C7B60FB6803F48033002B10D0114B86
:1020DC005B685B0C03F00103114AD35CBB607B684B
:1020EC000D4A02FB03F2BB68B2FBF3F37B6104E025
:1020FC007B680C4A02FB03F37B617B693B6102E06A
:10210C00054B3B6100BF3B6918461C37BD4680BC84
:10211C00704700BF0010024000127A00A829000886
:10212C00B829000800093D0080B485B000AF786084
:10213C000A4B1B680A4AA2FB03235B0A7A6802FB60
:10214C0003F3FB6000BFFB685A1EFA60002BF9D149
:10215C0000BF00BF1437BD4680BC70475000002044
:10216C00D34D621080B582B000AF78607B68002BD5
:10217C0001D1012341E07B6893F83D30DBB2002BA9
:10218C0006D17B68002283F83C207868FFF75AF868
:10219C007B68022283F83D207B681A687B680433D5
:1021AC001946104600F056FA7B68012283F8462047
:1021BC007B68012283F83E207B68012283F83F2054
:1021CC007B68012283F840207B68012283F8412040
:1021DC007B68012283F842207B68012283F843202C
:1021EC007B68012283F844207B68012283F8452018
:1021FC007B68012283F83D20002318460837BD4632
:10220C0080BD000080B485B000AF78607B6893F827
:10221C003D30DBB2012B01D0012335E07B6802227B
:10222C0083F83D207B681B68DA687B681B6842F08A
:10223C000102DA607B681B68164A934209D07B68FE
:10224C001B68B3F1804F04D07B681B68124A934221
:10225C0011D17B681B689B6803F00703FB60FB686C
:10226C00062B10D07B681B681A687B681B6842F0D1
:10227C0001021A6007E07B681B681A687B681B68A0
:10228C0042F001021A60002318461437BD4680BC88
:10229C00704700BF002C01400004004080B584B0A2
:1022AC0000AF78607B681B68DB68FB607B681B6831
:1022BC001B69BB60BB6803F00203002B20D0FB68DA
:1022CC0003F00203002B1BD07B681B686FF002022B
:1022DC001A617B6801221A777B681B689B6903F083
:1022EC000303002B03D0786800F098F905E07868B8
:1022FC0000F08BF9786800F09AF97B6800221A7765
:10230C00BB6803F00403002B20D0FB6803F004032C
:10231C00002B1BD07B681B686FF004021A617B6872
:10232C0002221A777B681B689B6903F44073002BAD
:10233C0003D0786800F072F905E0786800F065F970
:10234C00786800F074F97B6800221A77BB6803F098
:10235C000803002B20D0FB6803F00803002B1BD0D4
:10236C007B681B686FF008021A617B6804221A777D
:10237C007B681B68DB6903F00303002B03D07868D0
:10238C0000F04CF905E0786800F03FF9786800F04F
:10239C004EF97B6800221A77BB6803F01003002B00
:1023AC0020D0FB6803F01003002B1BD07B681B684C
:1023BC006FF010021A617B6808221A777B681B6821
:1023CC00DB6903F44073002B03D0786800F026F926
:1023DC0005E0786800F019F9786800F028F97B6856
:1023EC0000221A77BB6803F00103002B0CD0FB68AA
:1023FC0003F00103002B07D07B681B686FF0010210
:10240C001A617868FEF710FEBB6803F08003002B9E
:10241C000CD0FB6803F08003002B07D07B681B6893
:10242C006FF080021A61786800F06FFABB6803F0F5
:10243C004003002B0CD0FB6803F04003002B07D0AB
:10244C007B681B686FF040021A61786800F0F8F83E
:10245C00BB6803F02003002B0CD0FB6803F02003B7
:10246C00002B07D07B681B686FF020021A6178681C
:10247C0000F042FA00BF1037BD4680BD80B584B075
:10248C0000AF786039600023FB737B6893F83C30B5
:10249C00012B01D10223B4E07B68012283F83C209C
:1024AC007B68022283F83D207B681B689B68BB60BD
:1024BC00BB6823F07703BB60BB6823F47F43BB602E
:1024CC007B681B68BA689A603B681B68B3F5005F51
:1024DC003ED0B3F5005F00F28780B3F5805F00F06B
:1024EC008680B3F5805F7FD8702B1AD0702B7BD889
:1024FC00602B50D0602B77D8502B3CD0502B73D8FE
:10250C00402B58D0402B6FD8302B64D0302B6BD84D
:10251C00202B60D0202B67D8002B5CD0102B5AD0EE
:10252C0062E07B6818683B6899683B685A683B684E
:10253C00DB6800F06AF97B681B689B68BB60BB6852
:10254C0043F07703BB607B681B68BA689A604FE006
:10255C007B6818683B6899683B685A683B68DB681D
:10256C0000F053F97B681B689A687B681B6842F41F
:10257C0080429A603CE07B6818683B6859683B680D
:10258C00DB681A4600F0CAF87B681B6850211846B5
:10259C0000F021F92CE07B6818683B6859683B68AF
:1025AC00DB681A4600F0E8F87B681B686021184667
:1025BC0000F011F91CE07B6818683B6859683B68AF
:1025CC00DB681A4600F0AAF87B681B6840211846A5
:1025DC0000F001F90CE07B681A683B681B6819462F
:1025EC00104600F0F8F803E00123FB7300E000BF95
:1025FC007B68012283F83D207B68002283F83C2015
:10260C00FB7B18461037BD4680BD80B483B000AF4D
:10261C00786000BF0C37BD4680BC704780B483B077
:10262C0000AF786000BF0C37BD4680BC704780B4EB
:10263C0083B000AF786000BF0C37BD4680BC7047DC
:10264C0080B483B000AF786000BF0C37BD4680BC4F
:10265C007047000080B485B000AF786039607B684B
:10266C001B68FB607B682B4A934207D07B68B3F1F5
:10267C00804F03D07B68284A934208D1FB6823F033
:10268C007003FB603B685B68FA681343FB607B6814
:10269C00204A934207D07B68B3F1804F03D07B680C
:1026AC001D4A934208D1FB6823F44073FB603B68DE
:1026BC00DB68FA681343FB60FB6823F080023B681D
:1026CC005B691343FB607B68FA681A603B689A6825
:1026DC007B68DA623B681A687B689A627B680D4A91
:1026EC00934203D13B681A697B681A637B680122A9
:1026FC005A617B681B6903F00103002B05D07B68D2
:10270C001B6923F001027B681A6100BF1437BD46B8
:10271C0080BC7047002C01400004004080B487B09E
:10272C0000AFF860B9607A60FB681B6A7B61FB687C
:10273C001B6A23F00102FB681A62FB689B693B6110
:10274C003B6923F0F0033B617B681B013A6913433F
:10275C003B617B6923F00A037B617A69BB68134395
:10276C007B61FB683A699A61FB687A691A6200BFFF
:10277C001C37BD4680BC704780B487B000AFF86092
:10278C00B9607A60FB681B6A7B61FB681B6A23F08B
:10279C001002FB681A62FB689B693B613B6923F47E
:1027AC0070433B617B681B033A6913433B617B6954
:1027BC0023F0A0037B61BB681B017A6913437B6127
:1027CC00FB683A699A61FB687A691A6200BF1C3728
:1027DC00BD4680BC704780B485B000AF786039606E
:1027EC007B689B68FB60FB6823F07003FB603A68B6
:1027FC00FB68134343F00703FB607B68FA689A603D
:10280C0000BF1437BD4680BC704780B487B000AFA2
:10281C00F860B9607A603B60FB689B687B617B69A0
:10282C0023F47F437B613B681A027B681A43BB68C5
:10283C0013437A6913437B61FB687A699A6000BF22
:10284C001C37BD4680BC704780B485B000AF786043
:10285C0039607B6893F83C30012B01D1022341E0B5
:10286C007B68012283F83C207B68022283F83D20A0
:10287C007B681B685B68FB607B681B689B68BB6044
:10288C00FB6823F07003FB603B681B68FA6813431A
:10289C00FB607B681B68FA685A607B681B68144A8B
:1028AC00934209D07B681B68B3F1804F04D07B68DE
:1028BC001B68104A93420CD1BB6823F08003BB60A9
:1028CC003B685B68BA681343BB607B681B68BA687B
:1028DC009A607B68012283F83D207B68002283F894
:1028EC003C20002318461437BD4680BC704700BFFF
:1028FC00002C01400004004080B483B000AF78602D
:10290C0000BF0C37BD4680BC704780B483B000AFAD
:10291C00786000BF0C37BD4680BC704770B5002690
:10292C000C4D0D4C641BA410A64209D100F022F8EA
:10293C0000260A4D0A4C641BA410A64205D170BD9A
:10294C0055F8043B98470136EEE755F8043B984799
:10295C000136F2E7BC290008BC290008BC29000894
:10296C00C029000803460244934200D1704703F883
:10297C00011BF9E7F8B500BFF8BC08BC9E467047D0
:0C298C00F8B500BFF8BC08BC9E467047C0
:102998000000000000000000010203040607080907
:1029A80002030405060708090A0B0C0D0E0F101088
:0429B8000102000018
:0429BC0031010008DD
:0429C0000D010008FD
:1029C40001000000010000000100000001000000FF
:1029D400C800000001000000010000000100000028
:1029E40001000000C8000000010000000100000018
:1029F4000100000001000000C80000000100000008
:102A040001000000020000000300000004000000B8
:0C2A140000127A00100000000100000019
:0400000508001309D3
:00000001FF
