:020000040800F2
:100000000028002015180008A5170008AB170008E5
:10001000B1170008B7170008BD170008000000005E
:10002000000000000000000000000000C3170008EE
:10003000CF17000800000000DB170008E7170008D2
:100040005D1800085D1800085D1800085D180008BC
:100050005D1800085D1800085D1800085D180008AC
:100060005D1800085D1800085D1800085D1800089C
:100070005D1800085D1800085D1800085D1800088C
:100080005D1800085D1800085D1800085D1800087C
:100090005D1800085D1800085D1800085D1800086C
:1000A0005D1800085D1800085D1800085D1800085C
:1000B000F51700085D180008000000005D18000832
:1000C0005D18000800000000000000005D18000836
:1000D000000000005D1800085D1800080000000026
:1000E0005D1800085D1800085D1800080000000099
:1000F0000000000000000000000000000000000000
:0C01000000000000000000005FF808F1A3
:10010C0010B5054C237833B9044B13B10448AFF345
:10011C0000800123237010BD4C0000200000000063
:10012C008C2E000808B5034B1BB103490348AFF3F1
:10013C00008008BD00000000500000208C2E00083C
:10014C0080B400AF064B1B68012B04D1044B00227A
:10015C001A60012300E000231846BD4680BC70479E
:10016C006800002080B400AF064B1B68012B04D143
:10017C00044B00221A60012300E000231846BD4600
:10018C0080BC70476C00002080B400AF064B1B682D
:10019C00012B04D1044B00221A60012300E0002340
:1001AC001846BD4680BC70477000002080B400AF7C
:1001BC00034B01221A6000BFBD4680BC704700BFD4
:1001CC006800002080B500AF1F4B1B681F4A1360EE
:1001DC001F4B1B681C4A13604FF400511D4801F063
:1001EC0023FE03461A461A4B1A60184B1A68164B14
:1001FC001B689A4225D1144B1A68154B1B689A42FE
:10020C001FD1154B1A68124B1B689A420DD0104B1C
:10021C001B68114A13600E4B1B68002B11D1FFF7A2
:10022C00C5FF0E4BC8221A600BE00C4B1B68013B40
:10023C000A4A1360094B1B68002B02D1084B0122A0
:10024C001A6000BF80BD00BF040000200000002029
:10025C0008000020000C01400C00002010000020C1
:10026C003400002080B500AF1F4B1B681F4A136081
:10027C001F4B1B681C4A13604FF480411D4801F052
:10028C00D3FD03461A461A4B1A60184B1A68164BC4
:10029C001B689A4226D1144B1A68154B1B689A425C
:1002AC0020D1154B1A68124B1B689A420ED0104B7A
:1002BC001B68114A13600E4B1B68002B12D10F4B9D
:1002CC0001221A600E4BC8221A600BE00C4B1B6803
:1002DC00013B0B4A13600A4B1B68002B02D1064BE7
:1002EC0001221A6000BF80BD1800002014000020FD
:1002FC001C000020000C0140200000206C0000209D
:10030C002400002080B500AF1F4B1B681F4A1360F0
:10031C001F4B1B681C4A13604FF400411D4801F031
:10032C0083FD03461A461A4B1A60184B1A68164B73
:10033C001B689A4226D1144B1A68154B1B689A42BB
:10034C0020D1154B1A68124B1B689A420ED0104BD9
:10035C001B68114A13600E4B1B68002B12D10F4BFC
:10036C0001221A600E4BC8221A600BE00C4B1B6862
:10037C00013B0B4A13600A4B1B68002B02D1064B46
:10038C0001221A6000BF80BD2C0000202800002034
:10039C0030000020000C01403400002070000020D0
:1003AC003800002080B500AF8A4B1B68013B042B42
:1003BC0000F2048101A252F823F000BFDD03000813
:1003CC000704000877040008ED0400085B0500082A
:1003DC0000F066FA00F040FA7E4B02221A604FF4ED
:1003EC007A7001F0E1F87C4B1B684FF47A7202FBD7
:1003FC0003F3184601F0A0F8E9E000F097FA00F0DA
:10040C00EDFA764B1B68012B0DD1754B1B68013B2C
:10041C00734A1360704B1B68013B6F4A13604FF4B7
:10042C007A7001F0C1F86F4B1B68012B0FD1694B2F
:10043C0003221A606C4B1B68674A13606B4B1B687A
:10044C004FF47A7202FB03F3184601F075F8FFF7CC
:10045C0077FE0346012B40F0B3805E4B0C221A60F2
:10046C0040F6B83001F068F8AAE000F05FFA00F04E
:10047C00CBFA5A4B1B68012B0DD1594B1B68013B16
:10048C00574A1360594B1B68013B584A13604FF491
:10049C007A7001F089F8534B1B68012B13D14D4B2B
:1004AC0004221A60524B1B68504A1360514B1B6854
:1004BC004B4A1360484B1B684FF47A7202FB03F3F0
:1004CC00184601F039F8FFF73BFE0346012B79D1B2
:1004DC00404B0C221A6042F2107001F02DF871E0C2
:1004EC0000F03AFA00F064FA3C4B1B68012B0DD17A
:1004FC003B4B1B68013B3A4A1360374B1B68013B73
:10050C00354A13604FF47A7001F04EF8354B1B6886
:10051C00012B0FD12F4B05221A60334B1B682E4A2F
:10052C001360324B1B684FF47A7202FB03F31846CC
:10053C0001F002F8FFF704FE0346012B44D1254BD2
:10054C000C221A6042F2107000F0F6FF3CE000F052
:10055C0019FA00F02DFA214B1B68012B0DD1204B01
:10056C001B68013B1E4A1360204B1B68013B1F4A52
:10057C0013604FF47A7001F017F81A4B1B68012BBB
:10058C000FD1144B02221A601A4B1B68144A1360C9
:10059C00174B1B68154A13600F4B1B68184600F06D
:1005AC00CBFFFFF7CDFD0346012B0FD1094B0C22DE
:1005BC001A6042F2107000F0BFFF07E000BF06E0C7
:1005CC0000BF04E000BF02E000BF00E000BF00BFBE
:1005DC0080BD00BF3C000020B4000020980000202B
:1005EC00A800002088000020B0000020B8000020E7
:1005FC00AC000020A400002080B500AF584B1B6855
:10060C000E2B3BD00E2B00F3A1800C2B02D00D2B0C
:10061C0068D09BE0534B1B68012B05D100F00AFA04
:10062C004FF4FA7000F0DCFFFFF78AFD0346012B54
:10063C0006D14B4B0D221A6042F2107000F07CFF79
:10064C00FFF790FD0346012B0FD1474B1B6801337D
:10065C00454A1360444B1B68632B02DD424B00225E
:10066C001A6042F2107000F067FFFFF78DFD034631
:10067C00002B6DD03A4B15221A6069E0394B1B6880
:10068C00012B05D100F0F8F94FF4FA7000F0A8FF37
:10069C00FFF756FD0346012B06D1314B02221A609F
:1006AC0042F2107000F048FFFFF75CFD0346012B8F
:1006BC000FD12D4B1B6801332B4A13602B4B1B683E
:1006CC00632B02DD294B00221A6042F2107000F0FD
:1006DC0033FFFFF759FD0346002B3BD0204B17226D
:1006EC001A6037E01F4B1B68012B05D100F0E6F9AF
:1006FC004FF4FA7000F074FFFFF722FD0346012B54
:10070C0006D1174B0E221A6042F2107000F014FF43
:10071C00FFF728FD0346012B0FD1154B1B68013346
:10072C00134A1360124B1B68632B02DD104B002223
:10073C001A6042F2107000F0FFFEFFF725FD034631
:10074C00012B09D1064B16221A6005E000BF04E00C
:10075C0000BF02E000BF00E000BF00BF80BD00BFD3
:10076C003C000020A0000020A8000020B4000020C5
:10077C00B800002080B483B000AF00237B602F4B07
:10078C001B68172B3AD0172B52DC152B02D0162BCB
:10079C001AD04DE02A4B1A682A4B1B68D31A7B607F
:1007AC00274B1B68274A1360274B1A687B68134436
:1007BC00254A1360254B1A687B681344234A13603F
:1007CC001E4B0C221A6034E0214B1A68214B1B681B
:1007DC00D31A7B601E4B1B681E4A1360194B1A6898
:1007EC007B681344174A1360154B1A687B681344D3
:1007FC00134A1360114B0D221A601AE0134B1A683E
:10080C00114B1B68D31A7B60104B1B680E4A13608C
:10081C000D4B1A687B6813440B4A13600B4B1A6818
:10082C007B681344094A1360044B0E221A6000E0E3
:10083C0000BF00BF0C37BD4680BC70473C00002099
:10084C00A8000020A4000020B0000020B40000206C
:10085C00B8000020AC00002080B500AF00220121C0
:10086C000E4801F0F8FA002202210C4801F0F3FACC
:10087C0000220421094801F0EEFA00220821074861
:10088C0001F0E9FA00221021044801F0E4FA0022F8
:10089C002021024801F0DFFA00BF80BD000C0140AE
:1008AC0080B400AF184B0A221A60184B07221A604A
:1008BC00174B03221A60144B1B68164A1360134B18
:1008CC001B68154A1360124B1B68144A13600E4BBD
:1008DC001B68134A82FB03129210DB17D31A114ABE
:1008EC001360094B19680E4B83FB01239A10CB172D
:1008FC00D21A13469B0013445B00CA1A0A4B1A60A7
:10090C0000BFBD4680BC7047A4000020B000002092
:10091C00AC000020A8000020B4000020B80000208B
:10092C0067666666BC000020C800002080B500AF7A
:10093C0001220121074801F08EFA0022022105480C
:10094C0001F089FA00220421024801F084FA00BF68
:10095C0080BD00BF000C014080B500AF002201211A
:10096C00074801F078FA01220221054801F073FAD8
:10097C0000220421024801F06EFA00BF80BD00BFC6
:10098C00000C014080B500AF00220121074801F0A6
:10099C0062FA00220221054801F05DFA01220421CD
:1009AC00024801F058FA00BF80BD00BF000C0140A6
:1009BC0080B500AF01220821074801F04CFA002253
:1009CC001021054801F047FA00222021024801F0CD
:1009DC0042FA00BF80BD00BF000C014080B500AFE3
:1009EC0000220821074801F036FA0122102105489F
:1009FC0001F031FA00222021024801F02CFA00BF4C
:100A0C0080BD00BF000C014080B500AF0022082162
:100A1C00074801F020FA00221021054801F01BFACA
:100A2C0001222021024801F016FA00BF80BD00BF50
:100A3C00000C014080B500AF002202210D4801F0EE
:100A4C000AFA002204210B4801F005FA00221021B9
:100A5C00084801F000FA00222021064801F0FBF9B9
:100A6C000121044801F00FFA0821024801F00BFAA9
:100A7C0000BF80BD000C014080B500AF00220121F9
:100A8C000D4801F0E8F902210B4801F0FCF90022B5
:100A9C000421094801F0DFF900220821064801F081
:100AAC00DAF91021044801F0EEF900222021024865
:100ABC0001F0D1F900BF80BD000C014080B500AF42
:100ACC00002201210D4801F0C6F9002202210B4839
:100ADC0001F0C1F90421094801F0D5F900220821DF
:100AEC00064801F0B8F900221021044801F0B3F9CE
:100AFC002021024801F0C7F900BF80BD000C014065
:100B0C0080B400AF1E4B1B68023B0C2B31D801A2EA
:100B1C0052F823F0550B00085B0B0008610B000822
:100B2C00670B00087F0B00087F0B00087F0B000889
:100B3C007F0B00087F0B00087F0B00086D0B000873
:100B4C00790B0008730B00080E4B1B6813E00D4B60
:100B5C001B6810E00C4B1B680DE00C4B1B680AE08B
:100B6C00084B1B6807E0094B1B6804E0064B1B682D
:100B7C0001E000BF00231846BD4680BC704700BF93
:100B8C003C000020A8000020B8000020B400002089
:100B9C0080B400AF1E4B1B68023B0C2B31D801A25A
:100BAC0052F823F0E50B0008EB0B0008F10B0008E2
:100BBC00F70B00080F0C00080F0C00080F0C0008B6
:100BCC000F0C00080F0C00080F0C0008FD0B0008A0
:100BDC00090C0008030C00080E4B1B6813E00E4BAD
:100BEC001B6810E00D4B1B680DE00C4B1B680AE0FA
:100BFC000A4B1B6807E0074B1B6804E0064B1B689D
:100C0C0001E000BF00231846BD4680BC704700BF02
:100C1C003C000020B4000020B8000020A8000020F8
:100C2C0080B582B000AF78607B68092B00F2C88178
:100C3C0001A252F823F000BF6D0C0008C30C000891
:100C4C00190D00086F0D0008C50D00081B0E0008DB
:100C5C00710E0008C70E00081D0F0008730F000866
:100C6C0000224FF40071D54801F0F5F800224FF442
:100C7C008061D24801F0EFF800224FF40061CF48B8
:100C8C0001F0E9F800224FF48051CC4801F0E3F870
:100C9C0000224FF40051C94801F0DDF800224FF456
:100CAC008041C64801F0D7F801224FF40041C348F7
:100CBC0001F0D1F885E101224FF40071BF4801F039
:100CCC00CAF800224FF48061BC4801F0C4F800223D
:100CDC004FF40061B94801F0BEF801224FF4805185
:100CEC00B64801F0B8F801224FF40051B34801F0B6
:100CFC00B2F801224FF48041B04801F0ACF8012267
:100D0C004FF40041AD4801F0A6F85AE100224FF42F
:100D1C000071AA4801F09FF800224FF48061A748A7
:100D2C0001F099F801224FF40061A44801F093F806
:100D3C0000224FF48051A14801F08DF800224FF4AD
:100D4C0000519E4801F087F801224FF480419B48E6
:100D5C0001F081F800224FF40041984801F07BF833
:100D6C002FE100224FF40071944801F074F8002236
:100D7C004FF48061914801F06EF800224FF400614D
:100D8C008E4801F068F800224FF480518B4801F036
:100D9C0062F801224FF40051884801F05CF80122FE
:100DAC004FF48041854801F056F800224FF4004181
:100DBC00824801F050F804E101224FF400717F48A1
:100DCC0001F049F800224FF480617C4801F043F8AF
:100DDC0000224FF40061794801F03DF801224FF4F4
:100DEC008051764801F037F801224FF400517348D6
:100DFC0001F031F800224FF48041704801F02BF8DB
:100E0C0000224FF400416D4801F025F8D9E0002292
:100E1C004FF40071694801F01EF801224FF4806113
:100E2C00664801F018F800224FF40061634801F0A5
:100E3C0012F800224FF48051604801F00CF80122A6
:100E4C004FF400515D4801F006F800224FF4804148
:100E5C005A4801F000F800224FF40041574800F0C6
:100E6C00FAFFAEE000224FF40071544800F0F3FF9B
:100E7C0001224FF48061514800F0EDFF00224FF445
:100E8C0000614E4800F0E7FF00224FF480514B48C0
:100E9C0000F0E1FF00224FF40051484800F0DBFF66
:100EAC0000224FF48041454800F0D5FF00224FF45A
:100EBC000041424800F0CFFF83E000224FF4007164
:100ECC003E4800F0C8FF00224FF480613B4800F020
:100EDC00C2FF00224FF40061384800F0BCFF012231
:100EEC004FF48051354800F0B6FF01224FF4005109
:100EFC00324800F0B0FF01224FF480412F4800F03F
:100F0C00AAFF01224FF400412C4800F0A4FF58E046
:100F1C0000224FF40071294800F09DFF00224FF48D
:100F2C008061264800F097FF00224FF400612348AF
:100F3C0000F091FF00224FF48051204800F08BFF0D
:100F4C0000224FF400511D4800F085FF00224FF4A1
:100F5C0080411A4800F07FFF00224FF400411748EF
:100F6C0000F079FF2DE000224FF40071134800F0DF
:100F7C0072FF00224FF48061104800F06CFF0022D9
:100F8C004FF400610D4800F066FF00224FF48051D1
:100F9C000A4800F060FF01224FF40051074800F0AE
:100FAC005AFF00224FF48041044800F054FF002205
:100FBC004FF40041014800F04EFF02E000080140F0
:100FCC0000BF00BF0837BD4680BD00BF80B582B0F2
:100FDC0000AF78607B685A4203F0030302F003020F
:100FEC0058BF53427B607B68032B00F2998001A2AF
:100FFC0052F823F011100008531000089F1000083D
:10100C00E110000800220221484800F024FF0122D0
:10101C000421464800F01FFF01220821434800F03C
:10102C001AFF01221021414800F015FFFFF768FD5F
:10103C0003463F4A82FB03129210DB17D31A184661
:10104C00FFF7EEFD6DE001220221384800F003FFAE
:10105C0000220421354800F0FEFE0122082133480D
:10106C0000F0F9FE01221021304800F0F4FEFFF7E9
:10107C0047FD01462E4B83FB01239A10CB17D21A46
:10108C0013469B0013445B00CA1A1046FFF7C8FDB9
:10109C0047E001220221254800F0DDFE0122042157
:1010AC00224800F0D8FE00220821204800F0D3FE90
:1010BC00012210211D4800F0CEFEFFF769FD03460A
:1010CC001B4A82FB03129210DB17D31A1846FFF748
:1010DC00A7FD26E001220221144800F0BCFE0122EB
:1010EC000421124800F0B7FE012208210F4800F03D
:1010FC00B2FE002210210D4800F0ADFEFFF748FDB6
:10110C0001460B4B83FB01239A10CB17D21A1346C3
:10111C009B0013445B00CA1A1046FFF781FD00E0E8
:10112C0000BF00BF0837BD4680BD00BF00080140AE
:10113C006766666680B400AF2A4B1B68013B294A80
:10114C001360294B1B68013B274A1360254B1B6816
:10115C00002B07DA234B09221A60244B1B68013B36
:10116C00224A1360214B1B68002B09DC204B1B68A7
:10117C00204A82FB03129210DB17D31A1B4A13600E
:10118C00194B1B68002B07DA174B09221A601A4BF4
:10119C001B68013B184A1360174B1B68002B09DCBA
:1011AC00164B1B68134A82FB03129210DB17D31ADF
:1011BC00114A13600D4B1B68DAB2114B1A70094BB4
:1011CC001B68DAB20E4B5A700B4B1B68DAB20C4B25
:1011DC009A70054B1B68DAB2094BDA7000BFBD463A
:1011EC0080BC7047C8000020C4000020BC00002058
:1011FC00A400002067666666C0000020B0000020D6
:10120C007400002080B500AF104B1B68012B11D16E
:10121C000F4B1B68032B02DD0D4B00221A600C4B8D
:10122C001B685A1C0A490A601846FFF7CFFEFA20C1
:10123C0000F09EF9074B1B68012B05D1FFF77AFFD5
:10124C004FF47A7000F0B0F900BF80BD9000002020
:10125C00780000209800002080B500AF00F0FAFA6A
:10126C0000F032F800F0B8F800F06AF8134801F01A
:10127C004FFA642000F044F9642000F05DF964201A
:10128C0000F076F9642000F08FF9642000F0A8F9E2
:10129C000B4B1B68012B07D120210A4800F0F3FDF2
:1012AC004FF47A7000F02CF9FFF77CF8FFF7A4F9F3
:1012BC00FFF760FAFFF7A6FFEAE700BFCC000020BB
:1012CC00800000200008014080B590B000AF07F10D
:1012DC00180328220021184601F0CAFD3B1D0022EC
:1012EC001A605A609A60DA601A610223BB610123AA
:1012FC00BB621023FB6200237B6307F118031846C3
:10130C0000F0DAFD0346002B01D000F0F3F80F23B8
:10131C007B600023BB600023FB6000233B61002348
:10132C007B613B1D0021184601F046F80346002B5B
:10133C0001D000F0DFF800BF4037BD4680BD000093
:10134C0080B586B000AF07F1080300221A605A601E
:10135C009A60DA603B4600221A605A601D4B4FF0CF
:10136C0080421A601B4B41F63F725A60194B0022A7
:10137C009A60184B0922DA60164B00221A61154B41
:10138C0000229A61134801F073F90346002B01D037
:10139C0000F0B0F84FF48053BB6007F10803194616
:1013AC000C4801F0F1FA0346002B01D000F0A2F832
:1013BC0000233B6000237B603B461946054801F047
:1013CC00C9FC0346002B01D000F094F800BF18377D
:1013DC00BD4680BDCC00002080B588B000AF07F1C1
:1013EC00100300221A605A609A60DA60354B9B69D0
:1013FC00344A43F010039361324B9B6903F01003A2
:10140C00FB60FB682F4B9B692E4A43F004039361EE
:10141C002C4B9B6903F00403BB60BB68294B9B6995
:10142C00284A43F008039361264B9B6903F0080399
:10143C007B607B6800224FF6FE61234800F00BFDB9
:10144C00002240F23F11214800F005FD4FF40053FB
:10145C003B6100237B610123BB6107F1100319463B
:10146C001B4800F067FB4FF6FE633B6101237B6179
:10147C000023BB610223FB6107F1100319461248DC
:10148C0000F058FB40F23F133B6101237B610023CA
:10149C00BB610223FB6107F1100319460B4800F0F6
:1014AC0049FB4FF460433B6100237B610123BB612B
:1014BC0007F110031946054800F03CFB00BF20372C
:1014CC00BD4680BD0010024000080140000C0140E8
:1014DC000010014080B582B000AF786000F09CF83D
:1014EC00FEF770FEFEF7BEFEFEF70CFF00BF0837DE
:1014FC00BD4680BD80B400AF72B600BFFEE70000F1
:10150C0080B483B000AF78607B68084A82FB03121A
:10151C009210DB17D31A064A1360064B00221A608E
:10152C0000BF0C37BD4680BC704700BF676666665F
:10153C007C0000208000002080B483B000AF786075
:10154C007B68084A82FB03129210DB17D31A064AF7
:10155C001360064B00221A6000BF0C37BD4680BCDE
:10156C00704700BF67666666840000208800002014
:10157C0080B483B000AF78607B68084A82FB0312AA
:10158C009210DB17D31A064A1360064B00221A601E
:10159C0000BF0C37BD4680BC704700BF67666666EF
:1015AC008C0000209000002080B483B000AF7860E5
:1015BC007B68084A82FB03129210DB17D31A064A87
:1015CC001360064B00221A6000BF0C37BD4680BC6E
:1015DC00704700BF67666666940000209800002084
:1015EC0080B483B000AF78607B68084A82FB03123A
:1015FC009210DB17D31A064A1360064B00221A60AE
:10160C0000BF0C37BD4680BC704700BF676666667E
:10161C009C000020A000002080B400AF294B1B6868
:10162C00002B0BDD274B1B68013B264A1360254B17
:10163C001B68002B02DC244B01221A60234B1B6815
:10164C00002B0BDD214B1B68013B204A13601F4B09
:10165C001B68002B02DC1E4B01221A601D4B1B6801
:10166C00002B0BDD1B4B1B68013B1A4A1360194BFB
:10167C001B68002B02DC184B01221A60174B1B68ED
:10168C00002B0BDD154B1B68013B144A1360134BED
:10169C001B68002B02DC124B01221A60114B1B68D9
:1016AC00002B0BDD0F4B1B68013B0E4A13600D4BDF
:1016BC001B68002B02DC0C4B01221A6000BFBD46DC
:1016CC0080BC70477C00002080000020840000203B
:1016DC00880000208C000020900000209400002046
:1016EC00980000209C000020A000002080B485B051
:1016FC0000AF154B9B69144A43F001039361124BE5
:10170C009B6903F00103BB60BB680F4BDB690E4A9E
:10171C0043F08053D3610C4BDB6903F080537B6047
:10172C007B680A4B5B68FB60FB6823F0E063FB6043
:10173C00FB6843F08063FB60044AFB68536000BFA6
:10174C001437BD4680BC70470010024000000140B9
:10175C0080B584B000AF78607B681B68B3F1804FB4
:10176C0013D10C4BDB690B4A43F00103D361094BDA
:10177C00DB6903F00103FB60FB68002200211C20E5
:10178C0000F0A1F91C2000F0BAF900BF1037BD46DB
:10179C0080BD00BF0010024080B400AFFEE780B4F3
:1017AC0000AFFEE780B400AFFEE780B400AFFEE709
:1017BC0080B400AFFEE780B400AF00BFBD4680BC74
:1017CC00704780B400AF00BFBD4680BC704780B48A
:1017DC0000AF00BFBD4680BC704780B500AF00F0C5
:1017EC007FF800BF80BD000080B500AF024800F05C
:1017FC00DBFF00BF80BD00BFCC00002080B400AF79
:10180C0000BFBD4680BC7047FFF7F8FF0B480C4982
:10181C000C4A002302E0D458C4500433C4188C4240
:10182C00F9D3094A094C002301E013600432A242A7
:10183C00FBD301F0F9FAFFF70FFD70470000002011
:10184C004C000020D02E00084C0000201801002075
:10185C00FEE7000080B500AF084B1B68074A43F059
:10186C0010031360032000F023F90F2000F008F898
:10187C00FFF73CFF0023184680BD00BF002002404C
:10188C0080B582B000AF7860124B1A68124B1B788F
:10189C0019464FF47A73B3FBF1F3B2FBF3F318462A
:1018AC0000F03BF90346002B01D001230EE07B68CE
:1018BC000F2B0AD8002279684FF0FF3000F003F9A3
:1018CC00064A7B681360002300E0012318460837A2
:1018DC00BD4680BD40000020480000204400002090
:1018EC0080B400AF054B1B781A46054B1B6813449C
:1018FC00034A136000BFBD4680BC704748000020FF
:10190C001401002080B400AF024B1B681846BD4682
:10191C0080BC70471401002080B485B000AF7860A3
:10192C007B6803F00703FB600C4BDB68BB60BA6899
:10193C004FF6FF031340BB60FB681A02BB681343EE
:10194C0043F0BF6343F40033BB60044ABB68D3600D
:10195C0000BF1437BD4680BC704700BF00ED00E0EF
:10196C0080B400AF044BDB681B0A03F00703184676
:10197C00BD4680BC704700BF00ED00E080B483B072
:10198C0000AF0346FB7197F90730002B0BDBFB799B
:10199C0003F01F02064997F907305B09012000FA92
:1019AC0002F241F8232000BF0C37BD4680BC7047C3
:1019BC0000E100E080B483B000AF03463960FB71F6
:1019CC0097F90730002B0ADB3B68DAB20C4997F920
:1019DC0007301201D2B20B4483F800230AE03B68B3
:1019EC00DAB20849FB7903F00F03043B1201D2B2BF
:1019FC000B441A7600BF0C37BD4680BC704700BF45
:101A0C0000E100E000ED00E080B489B000AFF860C8
:101A1C00B9607A60FB6803F00703FB61FB69C3F1F3
:101A2C000703042B28BF0423BB61FB690433062B7B
:101A3C0002D9FB69033B00E000237B614FF0FF32CE
:101A4C00BB6902FA03F3DA43BB681A407B699A401C
:101A5C004FF0FF317B6901FA03F3D9437B680B40EC
:101A6C00134318462437BD4680BC704780B582B0FE
:101A7C0000AF78607B68013BB3F1807F01D3012319
:101A8C000FE00A4A7B68013B53600F214FF0FF3097
:101A9C00FFF790FF054B00229A60044B07221A6057
:101AAC00002318460837BD4680BD00BF10E000E09B
:101ABC0080B582B000AF78607868FFF72DFF00BF6B
:101ACC000837BD4680BD80B586B000AF0346B9600F
:101ADC007A60FB7300237B61FFF742FF78617A68C1
:101AEC00B9687869FFF790FF024697F90F301146F5
:101AFC001846FFF75FFF00BF1837BD4680BD80B5A5
:101B0C0082B000AF0346FB7197F907301846FFF718
:101B1C0035FF00BF0837BD4680BD80B582B000AF31
:101B2C0078607868FFF7A2FF034618460837BD4671
:101B3C0080BD000080B48BB000AF786039600023AA
:101B4C007B6200233B6248E101227B6A02FA03F3C9
:101B5C00FB613B681B68FA691340BB61BA69FB699E
:101B6C009A4240F037813B685B68A34A93425ED04F
:101B7C00A14A934275D8A14A934258D09F4A9342A6
:101B8C006FD89F4A934252D09D4A934269D89D4A3E
:101B9C0093424CD09B4A934263D89B4A934246D083
:101BAC00994A93425DD8122B2AD8122B59D801A2EC
:101BBC0052F823F03B1C0008151C0008271C0008D9
:101BCC00691C00086F1C00086F1C00086F1C0008C3
:101BDC006F1C00086F1C00086F1C00086F1C0008AD
:101BEC006F1C00086F1C00086F1C00086F1C00089D
:101BFC006F1C00086F1C00081D1C0008311C00081D
:101C0C00824A934213D02CE03B68DB683B6229E0AC
:101C1C003B68DB6804333B6224E03B68DB680833D9
:101C2C003B621FE03B68DB680C333B621AE03B68AD
:101C3C009B68002B02D104233B6213E03B689B683A
:101C4C00012B05D108233B627B68FA691A6109E014
:101C5C0008233B627B68FA695A6103E000233B620C
:101C6C0000E000BFBB69FF2B01D87B6801E07B68FB
:101C7C0004337B61BB69FF2B02D87B6A9B0002E0BB
:101C8C007B6A083B9B003B617B691A680F213B69AF
:101C9C0001FA03F3DB431A40396A3B6901FA03F397
:101CAC001A437B691A603B685B6803F08053002B16
:101CBC0000F09080564B9B69554A43F001039361A9
:101CCC00534B9B6903F00103BB60BB68514A7B6AB1
:101CDC009B08023352F82330FB607B6A03F003034A
:101CEC009B000F2202FA03F3DB43FA681340FB60FC
:101CFC007B68494A93420DD07B68484A934207D08F
:101D0C007B68474A934201D1022304E0032302E09B
:101D1C00012300E000237A6A02F003029200934050
:101D2C00FA681343FB603B497B6A9B080233FA68F1
:101D3C0041F823203B685B6803F48013002B06D02A
:101D4C00384B9A683749BB6913438B6006E0354BB7
:101D5C009A68BB69DB43334913408B603B685B6813
:101D6C0003F40013002B06D02E4BDA682D49BB6907
:101D7C001343CB6006E02B4BDA68BB69DB43294984
:101D8C001340CB603B685B6803F40033002B06D038
:101D9C00244B5A682349BB6913434B6006E0214B23
:101DAC005A68BB69DB431F4913404B603B685B6857
:101DBC0003F48033002B06D01A4B1A681949BB69FF
:101DCC0013430B6006E0174B1A68BB69DB431549DC
:101DDC0013400B607B6A01337B623B681A687B6A39
:101DEC0022FA03F3002B7FF4AFAE00BF00BF2C37F9
:101DFC00BD4680BC704700BF00003210000031109F
:101E0C000000221000002110000012100000111020
:101E1C00001002400000014000080140000C01408D
:101E2C00001001400004014080B485B000AF786020
:101E3C000B467B807B689A687B881340002B02D012
:101E4C000123FB7301E00023FB73FB7B1846143763
:101E5C00BD4680BC704780B483B000AF78600B4641
:101E6C007B8013467B707B78002B03D07A887B6851
:101E7C001A6103E07B881A047B681A6100BF0C3777
:101E8C00BD4680BC704780B485B000AF78600B460F
:101E9C007B807B68DB68FB607A88FB6813401A04E4
:101EAC00FB68D9437B880B401A437B681A6100BFDF
:101EBC001437BD4680BC704780B586B000AF7860E3
:101ECC007B68002B01D101236CE27B681B6803F05B
:101EDC000103002B00F08780924B5B6803F00C032E
:101EEC00042B0CD08F4B5B6803F00C03082B12D126
:101EFC008C4B5B6803F48033B3F5803F0BD1894B7B
:101F0C001B6803F40033002B6CD07B685B68002BE0
:101F1C0068D1012346E27B685B68B3F5803F06D14C
:101F2C00804B1B687F4A43F4803313602EE07B6840
:101F3C005B68002B0CD17B4B1B687A4A23F48033F3
:101F4C001360784B1B68774A23F4802313601DE0E1
:101F5C007B685B68B3F5A02F0CD1724B1B68714A80
:101F6C0043F4802313606F4B1B686E4A43F4803339
:101F7C0013600BE06B4B1B686A4A23F480331360CD
:101F8C00684B1B68674A23F4802313607B685B688B
:101F9C00002B13D0FFF7B6FC386108E0FFF7B2FC5A
:101FAC0002463B69D31A642B01D90323FAE15D4B3A
:101FBC001B6803F40033002BF0D014E0FFF7A2FCF5
:101FCC00386108E0FFF79EFC02463B69D31A642B8C
:101FDC0001D90323E6E1534B1B6803F40033002BB8
:101FEC00F0D100E000BF7B681B6803F00203002BFC
:101FFC0063D04C4B5B6803F00C03002B0BD0494BAC
:10200C005B6803F00C03082B1CD1464B5B6803F494
:10201C008033002B16D1434B1B6803F00203002BBB
:10202C0005D07B681B69012B01D00123BAE13D4B24
:10203C001B6823F0F8027B685B69DB0039491343AA
:10204C000B603AE07B681B69002B20D0364B0122D9
:10205C001A60FFF757FC386108E0FFF753FC0246A3
:10206C003B69D31A022B01D903239BE12D4B1B682F
:10207C0003F00203002BF0D02A4B1B6823F0F8026C
:10208C007B685B69DB00274913430B6015E0264B2B
:10209C0000221A60FFF736FC386108E0FFF732FCCB
:1020AC0002463B69D31A022B01D903237AE11D4B5B
:1020BC001B6803F00203002BF0D17B681B6803F054
:1020CC000803002B3AD07B689B69002B19D0174B67
:1020DC0001221A60FFF716FC386108E0FFF712FCCA
:1020EC0002463B69D31A022B01D903235AE10D4B4B
:1020FC005B6A03F00203002BF0D0012000F09AFA87
:10210C001CE00A4B00221A60FFF7FCFB38610FE061
:10211C00FFF7F8FB02463B69D31A022B08D90323BD
:10212C0040E100BF001002400000424280044242E5
:10213C009E4B5B6A03F00203002BE9D17B681B68A2
:10214C0003F00403002B00F0A6800023FB75974BD3
:10215C00DB6903F08053002B0DD1944BDB69934A60
:10216C0043F08053D361914BDB6903F08053BB6028
:10217C00BB680123FB758E4B1B6803F48073002B2B
:10218C0018D18B4B1B688A4A43F480731360FFF79A
:10219C00B9FB386108E0FFF7B5FB02463B69D31A7F
:1021AC00642B01D90323FDE0814B1B6803F480737E
:1021BC00002BF0D07B68DB68012B06D17B4B1B6AB4
:1021CC007A4A43F0010313622DE07B68DB68002B35
:1021DC000CD1764B1B6A754A23F001031362734BC7
:1021EC001B6A724A23F0040313621CE07B68DB68F1
:1021FC00052B0CD16D4B1B6A6C4A43F00403136224
:10220C006A4B1B6A694A43F0010313620BE0674B8C
:10221C001B6A664A23F001031362644B1B6A634A10
:10222C0023F0040313627B68DB68002B15D0FFF7E7
:10223C0069FB38610AE0FFF765FB02463B69D31A7C
:10224C0041F28832934201D90323ABE0574B1B6A0E
:10225C0003F00203002BEED014E0FFF753FB3861C0
:10226C000AE0FFF74FFB02463B69D31A41F2883272
:10227C00934201D9032395E04C4B1B6A03F00203F4
:10228C00002BEED1FB7D012B05D1484BDB69474A76
:10229C0023F08053D3617B68DB69002B00F08180D5
:1022AC00424B5B6803F00C03082B61D07B68DB6945
:1022BC00022B46D13F4B00221A60FFF723FB3861FB
:1022CC0008E0FFF71FFB02463B69D31A022B01D92A
:1022DC00032367E0354B1B6803F00073002BF0D130
:1022EC007B681B6AB3F5803F08D1304B5B6823F4E5
:1022FC0000327B689B682D4913434B602B4B5B680A
:10230C0023F474127B68196A7B685B6A0B43274958
:10231C0013434B60274B01221A60FFF7F3FA386125
:10232C0008E0FFF7EFFA02463B69D31A022B01D9FA
:10233C00032337E01D4B1B6803F00073002BF0D018
:10234C002FE01C4B00221A60FFF7DCFA386108E022
:10235C00FFF7D8FA02463B69D31A022B01D90323A3
:10236C0020E0124B1B6803F00073002BF0D118E037
:10237C007B68DB69012B01D1012313E00B4B5B68FC
:10238C00FB60FB6803F480327B681B6A9A4206D1BF
:10239C00FB6803F470127B685B6A9A4201D00123DC
:1023AC0000E0002318461837BD4680BD00100240DF
:1023BC00007000406000424280B584B000AF78608D
:1023CC0039607B68002B01D10123D0E06A4B1B687C
:1023DC0003F007033A689A4210D9674B1B6823F045
:1023EC00070265493B6813430B60634B1B6803F0A2
:1023FC0007033A689A4201D00123B8E07B681B6856
:10240C0003F00203002B20D07B681B6803F004034D
:10241C00002B05D0594B5B68584A43F4E06353607A
:10242C007B681B6803F00803002B05D0534B5B68DB
:10243C00524A43F460535360504B5B6823F0F002F4
:10244C007B689B684D4913434B607B681B6803F0AA
:10245C000103002B40D07B685B68012B07D1474BF5
:10246C001B6803F40033002B15D101237FE07B683C
:10247C005B68022B07D1414B1B6803F00073002BE8
:10248C0009D1012373E03D4B1B6803F00203002BC1
:10249C0001D101236BE0394B5B6823F003027B68AD
:1024AC005B68364913434B60FFF72CFAF8600AE07F
:1024BC00FFF728FA0246FB68D31A41F2883293429E
:1024CC0001D9032353E02D4B5B6803F00C027B68AE
:1024DC005B689B009A42EBD1274B1B6803F0070308
:1024EC003A689A4210D2244B1B6823F00702224907
:1024FC003B6813430B60204B1B6803F007033A68DF
:10250C009A4201D0012332E07B681B6803F004037C
:10251C00002B08D0194B5B6823F4E0627B68DB6806
:10252C00164913434B607B681B6803F00803002BB0
:10253C0009D0124B5B6823F460527B681B69DB008B
:10254C000E4913434B6000F021F802460B4B5B68BD
:10255C001B0903F00F030A49CB5C22FA03F3094A67
:10256C001360094B1B681846FFF78AF900231846BD
:10257C001037BD4680BD00BF002002400010024055
:10258C00A42E0008400000204400002080B487B036
:10259C0000AF0023FB600023BB6000237B610023A2
:1025AC007B6000233B611E4B5B68FB60FB6803F0A8
:1025BC000C03042B02D0082B03D027E0194B3B61F2
:1025CC0027E0FB689B0C03F00F03174AD35C7B607E
:1025DC00FB6803F48033002B10D0114B5B685B0C51
:1025EC0003F00103114AD35CBB607B680D4A02FB0C
:1025FC0003F2BB68B2FBF3F37B6104E07B680C4A2B
:10260C0002FB03F37B617B693B6102E0054B3B61A1
:10261C0000BF3B6918461C37BD4680BC704700BFE5
:10262C000010024000127A00B42E0008C42E0008DC
:10263C0000093D0080B485B000AF78600A4B1B6880
:10264C000A4AA2FB03235B0A7A6802FB03F3FB60D2
:10265C0000BFFB685A1EFA60002BF9D100BF00BF07
:10266C001437BD4680BC704740000020D34D62102B
:10267C0080B582B000AF78607B68002B01D101235C
:10268C0041E07B6893F83D30DBB2002B06D17B68D0
:10269C00002283F83C207868FFF75AF87B68022206
:1026AC0083F83D207B681A687B6804331946104612
:1026BC0000F056FA7B68012283F846207B680122E1
:1026CC0083F83E207B68012283F83F207B6801223F
:1026DC0083F840207B68012283F841207B6801222B
:1026EC0083F842207B68012283F843207B68012217
:1026FC0083F844207B68012283F845207B68012203
:10270C0083F83D20002318460837BD4680BD0000E5
:10271C0080B485B000AF78607B6893F83D30DBB255
:10272C00012B01D0012335E07B68022283F83D2088
:10273C007B681B68DA687B681B6842F00102DA6010
:10274C007B681B68164A934209D07B681B68B3F1FF
:10275C00804F04D07B681B68124A934211D17B686E
:10276C001B689B6803F00703FB60FB68062B10D00B
:10277C007B681B681A687B681B6842F001021A6050
:10278C0007E07B681B681A687B681B6842F00102D3
:10279C001A60002318461437BD4680BC704700BF32
:1027AC00002C01400004004080B584B000AF78607C
:1027BC007B681B68DB68FB607B681B681B69BB6004
:1027CC00BB6803F00203002B20D0FB6803F002036C
:1027DC00002B1BD07B681B686FF002021A617B68B0
:1027EC0001221A777B681B689B6903F00303002B9B
:1027FC0003D0786800F098F905E0786800F08BF960
:10280C00786800F09AF97B6800221A77BB6803F0AD
:10281C000403002B20D0FB6803F00403002B1BD017
:10282C007B681B686FF004021A617B6802221A77BE
:10283C007B681B689B6903F44073002B03D078689A
:10284C0000F072F905E0786800F065F9786800F03E
:10285C0074F97B6800221A77BB6803F00803002B1D
:10286C0020D0FB6803F00803002B1BD07B681B688F
:10287C006FF008021A617B6804221A777B681B6868
:10288C00DB6903F00303002B03D0786800F04CF9EC
:10289C0005E0786800F03FF9786800F04EF97B6845
:1028AC0000221A77BB6803F01003002B20D0FB68C2
:1028BC0003F01003002B1BD07B681B686FF0100219
:1028CC001A617B6808221A777B681B68DB6903F442
:1028DC004073002B03D0786800F026F905E0786887
:1028EC0000F019F9786800F028F97B6800221A7753
:1028FC00BB6803F00103002B0CD0FB6803F0010351
:10290C00002B07D07B681B686FF001021A61786896
:10291C00FEF7E0FDBB6803F08003002B0CD0FB68D6
:10292C0003F08003002B07D07B681B686FF08002DC
:10293C001A61786800F06FFABB6803F04003002B53
:10294C000CD0FB6803F04003002B07D07B681B689E
:10295C006FF040021A61786800F0F8F8BB6803F079
:10296C002003002B0CD0FB6803F02003002B07D0B6
:10297C007B681B686FF020021A61786800F042FADD
:10298C0000BF1037BD4680BD80B584B000AF786005
:10299C0039600023FB737B6893F83C30012B01D129
:1029AC000223B4E07B68012283F83C207B6802227E
:1029BC0083F83D207B681B689B68BB60BB6823F079
:1029CC007703BB60BB6823F47F43BB607B681B68E9
:1029DC00BA689A603B681B68B3F5005F3ED0B3F5EC
:1029EC00005F00F28780B3F5805F00F08680B3F55E
:1029FC00805F7FD8702B1AD0702B7BD8602B50D077
:102A0C00602B77D8502B3CD0502B73D8402B58D000
:102A1C00402B6FD8302B64D0302B6BD8202B60D050
:102A2C00202B67D8002B5CD0102B5AD062E07B682F
:102A3C0018683B6899683B685A683B68DB6800F02B
:102A4C006AF97B681B689B68BB60BB6843F07703C3
:102A5C00BB607B681B68BA689A604FE07B6818683B
:102A6C003B6899683B685A683B68DB6800F053F92F
:102A7C007B681B689A687B681B6842F480429A608A
:102A8C003CE07B6818683B6859683B68DB681A4611
:102A9C0000F0CAF87B681B685021184600F021F939
:102AAC002CE07B6818683B6859683B68DB681A4601
:102ABC0000F0E8F87B681B686021184600F011F9FB
:102ACC001CE07B6818683B6859683B68DB681A46F1
:102ADC0000F0AAF87B681B684021184600F001F949
:102AEC000CE07B681A683B681B681946104600F0BE
:102AFC00F8F803E00123FB7300E000BF7B680122C0
:102B0C0083F83D207B68002283F83C20FB7B184631
:102B1C001037BD4680BD80B483B000AF786000BF75
:102B2C000C37BD4680BC704780B483B000AF786072
:102B3C0000BF0C37BD4680BC704780B483B000AF7B
:102B4C00786000BF0C37BD4680BC704780B483B042
:102B5C0000AF786000BF0C37BD4680BC70470000EA
:102B6C0080B485B000AF786039607B681B68FB600F
:102B7C007B682B4A934207D07B68B3F1804F03D01C
:102B8C007B68284A934208D1FB6823F07003FB60F2
:102B9C003B685B68FA681343FB607B68204A93428E
:102BAC0007D07B68B3F1804F03D07B681D4A9342FA
:102BBC0008D1FB6823F44073FB603B68DB68FA6860
:102BCC001343FB60FB6823F080023B685B69134393
:102BDC00FB607B68FA681A603B689A687B68DA620B
:102BEC003B681A687B689A627B680D4A934203D1F2
:102BFC003B681A697B681A637B6801225A617B689F
:102C0C001B6903F00103002B05D07B681B6923F0C3
:102C1C0001027B681A6100BF1437BD4680BC704747
:102C2C00002C01400004004080B487B000AFF86075
:102C3C00B9607A60FB681B6A7B61FB681B6A23F0D6
:102C4C000102FB681A62FB689B693B613B6923F0DC
:102C5C00F0033B617B681B013A6913433B617B6961
:102C6C0023F00A037B617A69BB6813437B61FB68C1
:102C7C003A699A61FB687A691A6200BF1C37BD46D3
:102C8C0080BC704780B487B000AFF860B9607A60E0
:102C9C00FB681B6A7B61FB681B6A23F01002FB68F4
:102CAC001A62FB689B693B613B6923F470433B618F
:102CBC007B681B033A6913433B617B6923F0A003D8
:102CCC007B61BB681B017A6913437B61FB683A69C2
:102CDC009A61FB687A691A6200BF1C37BD4680BCDA
:102CEC00704780B485B000AF786039607B689B68B2
:102CFC00FB60FB6823F07003FB603A68FB681343CE
:102D0C0043F00703FB607B68FA689A6000BF1437D6
:102D1C00BD4680BC704780B487B000AFF860B96026
:102D2C007A603B60FB689B687B617B6923F47F4323
:102D3C007B613B681A027B681A43BB6813437A6950
:102D4C0013437B61FB687A699A6000BF1C37BD46F0
:102D5C0080BC704780B485B000AF786039607B6808
:102D6C0093F83C30012B01D1022341E07B68012216
:102D7C0083F83C207B68022283F83D207B681B682B
:102D8C005B68FB607B681B689B68BB60FB6823F01F
:102D9C007003FB603B681B68FA681343FB607B683D
:102DAC001B68FA685A607B681B68144A934209D006
:102DBC007B681B68B3F1804F04D07B681B68104A9A
:102DCC0093420CD1BB6823F08003BB603B685B680B
:102DDC00BA681343BB607B681B68BA689A607B68EF
:102DEC00012283F83D207B68002283F83C200023DD
:102DFC0018461437BD4680BC704700BF002C0140FC
:102E0C000004004080B483B000AF786000BF0C3782
:102E1C00BD4680BC704780B483B000AF786000BF03
:102E2C000C37BD4680BC704770B500260C4D0D4C60
:102E3C00641BA410A64209D100F022F800260A4D0A
:102E4C000A4C641BA410A64205D170BD55F8043B76
:102E5C0098470136EEE755F8043B98470136F2E700
:102E6C00C82E0008C82E0008C82E0008CC2E00085A
:102E7C0003460244934200D1704703F8011BF9E763
:102E8C00F8B500BFF8BC08BC9E467047F8B500BF4B
:082E9C00F8BC08BC9E4670471B
:102EA40000000000000000000102030406070809F6
:102EB40002030405060708090A0B0C0D0E0F101077
:042EC4000102000007
:042EC80031010008CC
:042ECC000D010008EC
:102ED00001000000010000000100000001000000EE
:102EE000C800000001000000010000000100000017
:102EF00001000000C8000000010000000100000007
:102F00000100000001000000C800000001000000F6
:0C2F100000127A00100000000100000018
:0400000508001815C2
:00000001FF
